{
  "_format": "hh3-artifact-1",
  "contractName": "SimpleNFT",
  "sourceName": "contracts/SimpleNFT.sol",
  "abi": [
    {
      "inputs": [],
      "stateMutability": "nonpayable",
      "type": "constructor"
    },
    {
      "inputs": [
        {
          "internalType": "address",
          "name": "sender",
          "type": "address"
        },
        {
          "internalType": "uint256",
          "name": "tokenId",
          "type": "uint256"
        },
        {
          "internalType": "address",
          "name": "owner",
          "type": "address"
        }
      ],
      "name": "ERC721IncorrectOwner",
      "type": "error"
    },
    {
      "inputs": [
        {
          "internalType": "address",
          "name": "operator",
          "type": "address"
        },
        {
          "internalType": "uint256",
          "name": "tokenId",
          "type": "uint256"
        }
      ],
      "name": "ERC721InsufficientApproval",
      "type": "error"
    },
    {
      "inputs": [
        {
          "internalType": "address",
          "name": "approver",
          "type": "address"
        }
      ],
      "name": "ERC721InvalidApprover",
      "type": "error"
    },
    {
      "inputs": [
        {
          "internalType": "address",
          "name": "operator",
          "type": "address"
        }
      ],
      "name": "ERC721InvalidOperator",
      "type": "error"
    },
    {
      "inputs": [
        {
          "internalType": "address",
          "name": "owner",
          "type": "address"
        }
      ],
      "name": "ERC721InvalidOwner",
      "type": "error"
    },
    {
      "inputs": [
        {
          "internalType": "address",
          "name": "receiver",
          "type": "address"
        }
      ],
      "name": "ERC721InvalidReceiver",
      "type": "error"
    },
    {
      "inputs": [
        {
          "internalType": "address",
          "name": "sender",
          "type": "address"
        }
      ],
      "name": "ERC721InvalidSender",
      "type": "error"
    },
    {
      "inputs": [
        {
          "internalType": "uint256",
          "name": "tokenId",
          "type": "uint256"
        }
      ],
      "name": "ERC721NonexistentToken",
      "type": "error"
    },
    {
      "inputs": [
        {
          "internalType": "address",
          "name": "owner",
          "type": "address"
        }
      ],
      "name": "OwnableInvalidOwner",
      "type": "error"
    },
    {
      "inputs": [
        {
          "internalType": "address",
          "name": "account",
          "type": "address"
        }
      ],
      "name": "OwnableUnauthorizedAccount",
      "type": "error"
    },
    {
      "anonymous": false,
      "inputs": [
        {
          "indexed": true,
          "internalType": "address",
          "name": "owner",
          "type": "address"
        },
        {
          "indexed": true,
          "internalType": "address",
          "name": "approved",
          "type": "address"
        },
        {
          "indexed": true,
          "internalType": "uint256",
          "name": "tokenId",
          "type": "uint256"
        }
      ],
      "name": "Approval",
      "type": "event"
    },
    {
      "anonymous": false,
      "inputs": [
        {
          "indexed": true,
          "internalType": "address",
          "name": "owner",
          "type": "address"
        },
        {
          "indexed": true,
          "internalType": "address",
          "name": "operator",
          "type": "address"
        },
        {
          "indexed": false,
          "internalType": "bool",
          "name": "approved",
          "type": "bool"
        }
      ],
      "name": "ApprovalForAll",
      "type": "event"
    },
    {
      "anonymous": false,
      "inputs": [
        {
          "indexed": false,
          "internalType": "uint256",
          "name": "_fromTokenId",
          "type": "uint256"
        },
        {
          "indexed": false,
          "internalType": "uint256",
          "name": "_toTokenId",
          "type": "uint256"
        }
      ],
      "name": "BatchMetadataUpdate",
      "type": "event"
    },
    {
      "anonymous": false,
      "inputs": [
        {
          "indexed": false,
          "internalType": "uint256",
          "name": "_tokenId",
          "type": "uint256"
        }
      ],
      "name": "MetadataUpdate",
      "type": "event"
    },
    {
      "anonymous": false,
      "inputs": [
        {
          "indexed": true,
          "internalType": "address",
          "name": "to",
          "type": "address"
        },
        {
          "indexed": true,
          "internalType": "uint256",
          "name": "tokenId",
          "type": "uint256"
        },
        {
          "indexed": false,
          "internalType": "string",
          "name": "tokenURI",
          "type": "string"
        }
      ],
      "name": "Minted",
      "type": "event"
    },
    {
      "anonymous": false,
      "inputs": [
        {
          "indexed": true,
          "internalType": "address",
          "name": "previousOwner",
          "type": "address"
        },
        {
          "indexed": true,
          "internalType": "address",
          "name": "newOwner",
          "type": "address"
        }
      ],
      "name": "OwnershipTransferred",
      "type": "event"
    },
    {
      "anonymous": false,
      "inputs": [
        {
          "indexed": true,
          "internalType": "address",
          "name": "from",
          "type": "address"
        },
        {
          "indexed": true,
          "internalType": "address",
          "name": "to",
          "type": "address"
        },
        {
          "indexed": true,
          "internalType": "uint256",
          "name": "tokenId",
          "type": "uint256"
        }
      ],
      "name": "Transfer",
      "type": "event"
    },
    {
      "inputs": [
        {
          "internalType": "address",
          "name": "to",
          "type": "address"
        },
        {
          "internalType": "uint256",
          "name": "tokenId",
          "type": "uint256"
        }
      ],
      "name": "approve",
      "outputs": [],
      "stateMutability": "nonpayable",
      "type": "function"
    },
    {
      "inputs": [
        {
          "internalType": "address",
          "name": "owner",
          "type": "address"
        }
      ],
      "name": "balanceOf",
      "outputs": [
        {
          "internalType": "uint256",
          "name": "",
          "type": "uint256"
        }
      ],
      "stateMutability": "view",
      "type": "function"
    },
    {
      "inputs": [
        {
          "internalType": "uint256",
          "name": "tokenId",
          "type": "uint256"
        }
      ],
      "name": "getApproved",
      "outputs": [
        {
          "internalType": "address",
          "name": "",
          "type": "address"
        }
      ],
      "stateMutability": "view",
      "type": "function"
    },
    {
      "inputs": [
        {
          "internalType": "address",
          "name": "owner",
          "type": "address"
        },
        {
          "internalType": "address",
          "name": "operator",
          "type": "address"
        }
      ],
      "name": "isApprovedForAll",
      "outputs": [
        {
          "internalType": "bool",
          "name": "",
          "type": "bool"
        }
      ],
      "stateMutability": "view",
      "type": "function"
    },
    {
      "inputs": [
        {
          "internalType": "string",
          "name": "tokenURI",
          "type": "string"
        }
      ],
      "name": "mint",
      "outputs": [],
      "stateMutability": "payable",
      "type": "function"
    },
    {
      "inputs": [],
      "name": "mintPrice",
      "outputs": [
        {
          "internalType": "uint256",
          "name": "",
          "type": "uint256"
        }
      ],
      "stateMutability": "view",
      "type": "function"
    },
    {
      "inputs": [],
      "name": "name",
      "outputs": [
        {
          "internalType": "string",
          "name": "",
          "type": "string"
        }
      ],
      "stateMutability": "view",
      "type": "function"
    },
    {
      "inputs": [],
      "name": "nextTokenId",
      "outputs": [
        {
          "internalType": "uint256",
          "name": "",
          "type": "uint256"
        }
      ],
      "stateMutability": "view",
      "type": "function"
    },
    {
      "inputs": [],
      "name": "owner",
      "outputs": [
        {
          "internalType": "address",
          "name": "",
          "type": "address"
        }
      ],
      "stateMutability": "view",
      "type": "function"
    },
    {
      "inputs": [
        {
          "internalType": "uint256",
          "name": "tokenId",
          "type": "uint256"
        }
      ],
      "name": "ownerOf",
      "outputs": [
        {
          "internalType": "address",
          "name": "",
          "type": "address"
        }
      ],
      "stateMutability": "view",
      "type": "function"
    },
    {
      "inputs": [],
      "name": "renounceOwnership",
      "outputs": [],
      "stateMutability": "nonpayable",
      "type": "function"
    },
    {
      "inputs": [
        {
          "internalType": "address",
          "name": "from",
          "type": "address"
        },
        {
          "internalType": "address",
          "name": "to",
          "type": "address"
        },
        {
          "internalType": "uint256",
          "name": "tokenId",
          "type": "uint256"
        }
      ],
      "name": "safeTransferFrom",
      "outputs": [],
      "stateMutability": "nonpayable",
      "type": "function"
    },
    {
      "inputs": [
        {
          "internalType": "address",
          "name": "from",
          "type": "address"
        },
        {
          "internalType": "address",
          "name": "to",
          "type": "address"
        },
        {
          "internalType": "uint256",
          "name": "tokenId",
          "type": "uint256"
        },
        {
          "internalType": "bytes",
          "name": "data",
          "type": "bytes"
        }
      ],
      "name": "safeTransferFrom",
      "outputs": [],
      "stateMutability": "nonpayable",
      "type": "function"
    },
    {
      "inputs": [
        {
          "internalType": "address",
          "name": "operator",
          "type": "address"
        },
        {
          "internalType": "bool",
          "name": "approved",
          "type": "bool"
        }
      ],
      "name": "setApprovalForAll",
      "outputs": [],
      "stateMutability": "nonpayable",
      "type": "function"
    },
    {
      "inputs": [
        {
          "internalType": "uint256",
          "name": "newPrice",
          "type": "uint256"
        }
      ],
      "name": "setMintPrice",
      "outputs": [],
      "stateMutability": "nonpayable",
      "type": "function"
    },
    {
      "inputs": [
        {
          "internalType": "bytes4",
          "name": "interfaceId",
          "type": "bytes4"
        }
      ],
      "name": "supportsInterface",
      "outputs": [
        {
          "internalType": "bool",
          "name": "",
          "type": "bool"
        }
      ],
      "stateMutability": "view",
      "type": "function"
    },
    {
      "inputs": [],
      "name": "symbol",
      "outputs": [
        {
          "internalType": "string",
          "name": "",
          "type": "string"
        }
      ],
      "stateMutability": "view",
      "type": "function"
    },
    {
      "inputs": [
        {
          "internalType": "uint256",
          "name": "tokenId",
          "type": "uint256"
        }
      ],
      "name": "tokenURI",
      "outputs": [
        {
          "internalType": "string",
          "name": "",
          "type": "string"
        }
      ],
      "stateMutability": "view",
      "type": "function"
    },
    {
      "inputs": [
        {
          "internalType": "address",
          "name": "from",
          "type": "address"
        },
        {
          "internalType": "address",
          "name": "to",
          "type": "address"
        },
        {
          "internalType": "uint256",
          "name": "tokenId",
          "type": "uint256"
        }
      ],
      "name": "transferFrom",
      "outputs": [],
      "stateMutability": "nonpayable",
      "type": "function"
    },
    {
      "inputs": [
        {
          "internalType": "address",
          "name": "newOwner",
          "type": "address"
        }
      ],
      "name": "transferOwnership",
      "outputs": [],
      "stateMutability": "nonpayable",
      "type": "function"
    },
    {
      "inputs": [],
      "name": "withdraw",
      "outputs": [],
      "stateMutability": "nonpayable",
      "type": "function"
    }
  ],
  "bytecode": "0x6080604052662386f26fc1000060085534801561001a575f5ffd5b50336040518060400160405280600981526020016814da5b5c1b1953919560ba1b8152506040518060400160405280600481526020016314d3919560e21b815250815f9081610069919061019e565b506001610076828261019e565b5050506001600160a01b0381166100a657604051631e4fbdf760e01b81525f600482015260240160405180910390fd5b6100af816100b5565b50610258565b600780546001600160a01b038381166001600160a01b0319831681179093556040519116919082907f8be0079c531659141344cd1fd0a4f28419497f9722a3daafe3b4186f6b6457e0905f90a35050565b634e487b7160e01b5f52604160045260245ffd5b600181811c9082168061012e57607f821691505b60208210810361014c57634e487b7160e01b5f52602260045260245ffd5b50919050565b601f82111561019957805f5260205f20601f840160051c810160208510156101775750805b601f840160051c820191505b81811015610196575f8155600101610183565b50505b505050565b81516001600160401b038111156101b7576101b7610106565b6101cb816101c5845461011a565b84610152565b6020601f8211600181146101fd575f83156101e65750848201515b5f19600385901b1c1916600184901b178455610196565b5f84815260208120601f198516915b8281101561022c578785015182556020948501946001909201910161020c565b508482101561024957868401515f19600387901b60f8161c191681555b50505050600190811b01905550565b611630806102655f395ff3fe608060405260043610610126575f3560e01c8063715018a6116100a8578063b88d4fde1161006d578063b88d4fde14610303578063c87b56dd14610322578063d85d3d2714610341578063e985e9c514610354578063f2fde38b14610373578063f4a0a52814610392575f5ffd5b8063715018a61461028a57806375794a3c1461029e5780638da5cb5b146102b357806395d89b41146102d0578063a22cb465146102e4575f5ffd5b80633ccfd60b116100ee5780633ccfd60b146101f657806342842e0e1461020a5780636352211e146102295780636817c76c1461024857806370a082311461026b575f5ffd5b806301ffc9a71461012a57806306fdde031461015e578063081812fc1461017f578063095ea7b3146101b657806323b872dd146101d7575b5f5ffd5b348015610135575f5ffd5b50610149610144366004611149565b6103b1565b60405190151581526020015b60405180910390f35b348015610169575f5ffd5b506101726103db565b6040516101559190611192565b34801561018a575f5ffd5b5061019e6101993660046111a4565b61046a565b6040516001600160a01b039091168152602001610155565b3480156101c1575f5ffd5b506101d56101d03660046111d6565b610491565b005b3480156101e2575f5ffd5b506101d56101f13660046111fe565b6104a0565b348015610201575f5ffd5b506101d561052e565b348015610215575f5ffd5b506101d56102243660046111fe565b6105b1565b348015610234575f5ffd5b5061019e6102433660046111a4565b6105d0565b348015610253575f5ffd5b5061025d60085481565b604051908152602001610155565b348015610276575f5ffd5b5061025d610285366004611238565b6105da565b348015610295575f5ffd5b506101d561061f565b3480156102a9575f5ffd5b5061025d60095481565b3480156102be575f5ffd5b506007546001600160a01b031661019e565b3480156102db575f5ffd5b50610172610632565b3480156102ef575f5ffd5b506101d56102fe366004611251565b610641565b34801561030e575f5ffd5b506101d561031d366004611315565b61064c565b34801561032d575f5ffd5b5061017261033c3660046111a4565b610664565b6101d561034f36600461138c565b6106e5565b34801561035f575f5ffd5b5061014961036e3660046113d1565b6107e2565b34801561037e575f5ffd5b506101d561038d366004611238565b61080f565b34801561039d575f5ffd5b506101d56103ac3660046111a4565b61084c565b5f6001600160e01b03198216632483248360e11b14806103d557506103d582610859565b92915050565b60605f80546103e990611402565b80601f016020809104026020016040519081016040528092919081815260200182805461041590611402565b80156104605780601f1061043757610100808354040283529160200191610460565b820191905f5260205f20905b81548152906001019060200180831161044357829003601f168201915b5050505050905090565b5f610474826108a8565b505f828152600460205260409020546001600160a01b03166103d5565b61049c8282336108e0565b5050565b6001600160a01b0382166104ce57604051633250574960e11b81525f60048201526024015b60405180910390fd5b5f6104da8383336108ed565b9050836001600160a01b0316816001600160a01b031614610528576040516364283d7b60e01b81526001600160a01b03808616600483015260248201849052821660448201526064016104c5565b50505050565b6105366109df565b478061057a5760405162461bcd60e51b81526020600482015260136024820152724e6f7468696e6720746f20776974686472617760681b60448201526064016104c5565b6007546040516001600160a01b039091169082156108fc029083905f818181858888f1935050505015801561049c573d5f5f3e3d5ffd5b6105cb83838360405180602001604052805f81525061064c565b505050565b5f6103d5826108a8565b5f6001600160a01b038216610604576040516322718ad960e21b81525f60048201526024016104c5565b506001600160a01b03165f9081526003602052604090205490565b6106276109df565b6106305f610a0c565b565b6060600180546103e990611402565b61049c338383610a5d565b6106578484846104a0565b6105283385858585610b1c565b606061066f826108a8565b505f61068560408051602081019091525f815290565b90505f61069184610c44565b905081515f036106a2579392505050565b8051156106d45781816040516020016106bc929190611451565b60405160208183030381529060405292505050919050565b6106dd84610ce3565b949350505050565b60085434101561072e5760405162461bcd60e51b8152602060048201526014602482015273125b9cdd59999a58da595b9d081c185e5b595b9d60621b60448201526064016104c5565b5f6008543461073d9190611479565b9050801561077157604051339082156108fc029083905f818181858888f1935050505015801561076f573d5f5f3e3d5ffd5b505b600980549081905f6107828361148c565b91905055506107913382610d54565b61079b8184610db5565b80336001600160a01b03167fe7cd4ce7f2a465edc730269a1305e8a48bad821e8fb7e152ec413829c01a53c4856040516107d59190611192565b60405180910390a3505050565b6001600160a01b039182165f90815260056020908152604080832093909416825291909152205460ff1690565b6108176109df565b6001600160a01b03811661084057604051631e4fbdf760e01b81525f60048201526024016104c5565b61084981610a0c565b50565b6108546109df565b600855565b5f6001600160e01b031982166380ac58cd60e01b148061088957506001600160e01b03198216635b5e139f60e01b145b806103d557506301ffc9a760e01b6001600160e01b03198316146103d5565b5f818152600260205260408120546001600160a01b0316806103d557604051637e27328960e01b8152600481018490526024016104c5565b6105cb8383836001610e04565b5f828152600260205260408120546001600160a01b039081169083161561091957610919818486610f08565b6001600160a01b03811615610953576109345f855f5f610e04565b6001600160a01b0381165f90815260036020526040902080545f190190555b6001600160a01b03851615610981576001600160a01b0385165f908152600360205260409020805460010190555b5f8481526002602052604080822080546001600160a01b0319166001600160a01b0389811691821790925591518793918516917fddf252ad1be2c89b69c2b068fc378daa952ba7f163c4a11628f55a4df523b3ef91a4949350505050565b6007546001600160a01b031633146106305760405163118cdaa760e01b81523360048201526024016104c5565b600780546001600160a01b038381166001600160a01b0319831681179093556040519116919082907f8be0079c531659141344cd1fd0a4f28419497f9722a3daafe3b4186f6b6457e0905f90a35050565b6001600160a01b038316610a865760405163a9fbf51f60e01b81525f60048201526024016104c5565b6001600160a01b038216610ab857604051630b61174360e31b81526001600160a01b03831660048201526024016104c5565b6001600160a01b038381165f81815260056020908152604080832094871680845294825291829020805460ff191686151590811790915591519182527f17307eab39ab6107e8899845ad3d59bd9653f200f220920489ca2b5937696c3191016107d5565b6001600160a01b0383163b15610c3d57604051630a85bd0160e11b81526001600160a01b0384169063150b7a0290610b5e9088908890879087906004016114a4565b6020604051808303815f875af1925050508015610b98575060408051601f3d908101601f19168201909252610b95918101906114e0565b60015b610bff573d808015610bc5576040519150601f19603f3d011682016040523d82523d5f602084013e610bca565b606091505b5080515f03610bf757604051633250574960e11b81526001600160a01b03851660048201526024016104c5565b805160208201fd5b6001600160e01b03198116630a85bd0160e11b14610c3b57604051633250574960e11b81526001600160a01b03851660048201526024016104c5565b505b5050505050565b5f818152600660205260409020805460609190610c6090611402565b80601f0160208091040260200160405190810160405280929190818152602001828054610c8c90611402565b8015610cd75780601f10610cae57610100808354040283529160200191610cd7565b820191905f5260205f20905b815481529060010190602001808311610cba57829003601f168201915b50505050509050919050565b6060610cee826108a8565b505f610d0460408051602081019091525f815290565b90505f815111610d225760405180602001604052805f815250610d4d565b80610d2c84610f6c565b604051602001610d3d929190611451565b6040516020818303038152906040525b9392505050565b6001600160a01b038216610d7d57604051633250574960e11b81525f60048201526024016104c5565b5f610d8983835f6108ed565b90506001600160a01b038116156105cb576040516339e3563760e11b81525f60048201526024016104c5565b5f828152600660205260409020610dcc828261153f565b506040518281527ff8e1a15aba9398e019f0b49df1a4fde98ee17ae345cb5f6b5e2c27f5033e8ce79060200160405180910390a15050565b8080610e1857506001600160a01b03821615155b15610ed9575f610e27846108a8565b90506001600160a01b03831615801590610e535750826001600160a01b0316816001600160a01b031614155b8015610e665750610e6481846107e2565b155b15610e8f5760405163a9fbf51f60e01b81526001600160a01b03841660048201526024016104c5565b8115610ed75783856001600160a01b0316826001600160a01b03167f8c5be1e5ebec7d5bd14f71427d1e84f3dd0314c0f7b2291e5b200ac8c7c3b92560405160405180910390a45b505b50505f90815260046020526040902080546001600160a01b0319166001600160a01b0392909216919091179055565b610f13838383610ffc565b6105cb576001600160a01b038316610f4157604051637e27328960e01b8152600481018290526024016104c5565b60405163177e802f60e01b81526001600160a01b0383166004820152602481018290526044016104c5565b60605f610f788361105d565b60010190505f8167ffffffffffffffff811115610f9757610f9761128a565b6040519080825280601f01601f191660200182016040528015610fc1576020820181803683370190505b5090508181016020015b5f19016f181899199a1a9b1b9c1cb0b131b232b360811b600a86061a8153600a8504945084610fcb57509392505050565b5f6001600160a01b038316158015906106dd5750826001600160a01b0316846001600160a01b03161480611035575061103584846107e2565b806106dd5750505f908152600460205260409020546001600160a01b03908116911614919050565b5f8072184f03e93ff9f4daa797ed6e38ed64bf6a1f0160401b831061109b5772184f03e93ff9f4daa797ed6e38ed64bf6a1f0160401b830492506040015b6d04ee2d6d415b85acef810000000083106110c7576d04ee2d6d415b85acef8100000000830492506020015b662386f26fc1000083106110e557662386f26fc10000830492506010015b6305f5e10083106110fd576305f5e100830492506008015b612710831061111157612710830492506004015b60648310611123576064830492506002015b600a83106103d55760010192915050565b6001600160e01b031981168114610849575f5ffd5b5f60208284031215611159575f5ffd5b8135610d4d81611134565b5f81518084528060208401602086015e5f602082860101526020601f19601f83011685010191505092915050565b602081525f610d4d6020830184611164565b5f602082840312156111b4575f5ffd5b5035919050565b80356001600160a01b03811681146111d1575f5ffd5b919050565b5f5f604083850312156111e7575f5ffd5b6111f0836111bb565b946020939093013593505050565b5f5f5f60608486031215611210575f5ffd5b611219846111bb565b9250611227602085016111bb565b929592945050506040919091013590565b5f60208284031215611248575f5ffd5b610d4d826111bb565b5f5f60408385031215611262575f5ffd5b61126b836111bb565b91506020830135801515811461127f575f5ffd5b809150509250929050565b634e487b7160e01b5f52604160045260245ffd5b5f5f67ffffffffffffffff8411156112b8576112b861128a565b50604051601f19601f85018116603f0116810181811067ffffffffffffffff821117156112e7576112e761128a565b6040528381529050808284018510156112fe575f5ffd5b838360208301375f60208583010152509392505050565b5f5f5f5f60808587031215611328575f5ffd5b611331856111bb565b935061133f602086016111bb565b925060408501359150606085013567ffffffffffffffff811115611361575f5ffd5b8501601f81018713611371575f5ffd5b6113808782356020840161129e565b91505092959194509250565b5f6020828403121561139c575f5ffd5b813567ffffffffffffffff8111156113b2575f5ffd5b8201601f810184136113c2575f5ffd5b6106dd8482356020840161129e565b5f5f604083850312156113e2575f5ffd5b6113eb836111bb565b91506113f9602084016111bb565b90509250929050565b600181811c9082168061141657607f821691505b60208210810361143457634e487b7160e01b5f52602260045260245ffd5b50919050565b5f81518060208401855e5f93019283525090919050565b5f6106dd61145f838661143a565b8461143a565b634e487b7160e01b5f52601160045260245ffd5b818103818111156103d5576103d5611465565b5f6001820161149d5761149d611465565b5060010190565b6001600160a01b03858116825284166020820152604081018390526080606082018190525f906114d690830184611164565b9695505050505050565b5f602082840312156114f0575f5ffd5b8151610d4d81611134565b601f8211156105cb57805f5260205f20601f840160051c810160208510156115205750805b601f840160051c820191505b81811015610c3d575f815560010161152c565b815167ffffffffffffffff8111156115595761155961128a565b61156d816115678454611402565b846114fb565b6020601f82116001811461159f575f83156115885750848201515b5f19600385901b1c1916600184901b178455610c3d565b5f84815260208120601f198516915b828110156115ce57878501518255602094850194600190920191016115ae565b50848210156115eb57868401515f19600387901b60f8161c191681555b50505050600190811b0190555056fea2646970667358221220c1cc3c5624430be0365c026758a65dd8d2408e2ca9fed1e67ad3b290dd03cb1664736f6c634300081c0033",
  "linkReferences": {},
  "deployedLinkReferences": {},
  "immutableReferences": {},
  "inputSourceName": "project/contracts/SimpleNFT.sol",
  "buildInfoId": "solc-0_8_28-16871f2ee522158bdd1a819ae970529c1b4080ca"
}